{
  "contractName": "Blocklords",
  "abi": [
    {
      "constant": true,
      "inputs": [
        {
          "name": "",
          "type": "uint256"
        }
      ],
      "name": "stronghold_rewards",
      "outputs": [
        {
          "name": "ID",
          "type": "uint256"
        },
        {
          "name": "CreatedBlock",
          "type": "uint256"
        }
      ],
      "payable": false,
      "stateMutability": "view",
      "type": "function"
    },
    {
      "constant": true,
      "inputs": [
        {
          "name": "",
          "type": "uint256"
        }
      ],
      "name": "stronghold_reward_logs",
      "outputs": [
        {
          "name": "Block",
          "type": "uint256"
        },
        {
          "name": "StrongholdId",
          "type": "uint256"
        },
        {
          "name": "ItemId",
          "type": "uint256"
        },
        {
          "name": "HeroId",
          "type": "uint256"
        },
        {
          "name": "PreviousBlock",
          "type": "uint256"
        }
      ],
      "payable": false,
      "stateMutability": "view",
      "type": "function"
    },
    {
      "constant": true,
      "inputs": [
        {
          "name": "",
          "type": "uint256"
        }
      ],
      "name": "strongholds",
      "outputs": [
        {
          "name": "ID",
          "type": "uint256"
        },
        {
          "name": "Hero",
          "type": "uint256"
        },
        {
          "name": "CreatedBlock",
          "type": "uint256"
        }
      ],
      "payable": false,
      "stateMutability": "view",
      "type": "function"
    },
    {
      "constant": true,
      "inputs": [
        {
          "name": "",
          "type": "uint256"
        },
        {
          "name": "",
          "type": "uint256"
        }
      ],
      "name": "idToCity",
      "outputs": [
        {
          "name": "ID",
          "type": "uint256"
        },
        {
          "name": "Hero",
          "type": "uint256"
        },
        {
          "name": "Size",
          "type": "uint256"
        },
        {
          "name": "CofferSize",
          "type": "uint256"
        },
        {
          "name": "CreatedBlock",
          "type": "uint256"
        }
      ],
      "payable": false,
      "stateMutability": "view",
      "type": "function"
    },
    {
      "constant": true,
      "inputs": [
        {
          "name": "",
          "type": "uint256"
        }
      ],
      "name": "cities",
      "outputs": [
        {
          "name": "ID",
          "type": "uint256"
        },
        {
          "name": "Hero",
          "type": "uint256"
        },
        {
          "name": "Size",
          "type": "uint256"
        },
        {
          "name": "CofferSize",
          "type": "uint256"
        },
        {
          "name": "CreatedBlock",
          "type": "uint256"
        }
      ],
      "payable": false,
      "stateMutability": "view",
      "type": "function"
    },
    {
      "constant": true,
      "inputs": [
        {
          "name": "",
          "type": "uint256"
        }
      ],
      "name": "updated_items",
      "outputs": [
        {
          "name": "",
          "type": "uint256"
        }
      ],
      "payable": false,
      "stateMutability": "view",
      "type": "function"
    },
    {
      "constant": true,
      "inputs": [
        {
          "name": "",
          "type": "uint256"
        },
        {
          "name": "",
          "type": "uint256"
        }
      ],
      "name": "idToStronghold",
      "outputs": [
        {
          "name": "ID",
          "type": "uint256"
        },
        {
          "name": "Hero",
          "type": "uint256"
        },
        {
          "name": "CreatedBlock",
          "type": "uint256"
        }
      ],
      "payable": false,
      "stateMutability": "view",
      "type": "function"
    },
    {
      "constant": false,
      "inputs": [],
      "name": "renounceOwnership",
      "outputs": [],
      "payable": false,
      "stateMutability": "nonpayable",
      "type": "function"
    },
    {
      "constant": true,
      "inputs": [],
      "name": "owner",
      "outputs": [
        {
          "name": "",
          "type": "address"
        }
      ],
      "payable": false,
      "stateMutability": "view",
      "type": "function"
    },
    {
      "constant": true,
      "inputs": [],
      "name": "isOwner",
      "outputs": [
        {
          "name": "",
          "type": "bool"
        }
      ],
      "payable": false,
      "stateMutability": "view",
      "type": "function"
    },
    {
      "constant": true,
      "inputs": [
        {
          "name": "",
          "type": "uint256"
        }
      ],
      "name": "items",
      "outputs": [
        {
          "name": "STAT_TYPE",
          "type": "uint256"
        },
        {
          "name": "QUALITY",
          "type": "uint256"
        },
        {
          "name": "GENERATION",
          "type": "uint256"
        },
        {
          "name": "STAT_VALUE",
          "type": "uint256"
        },
        {
          "name": "LEVEL",
          "type": "uint256"
        },
        {
          "name": "XP",
          "type": "uint256"
        },
        {
          "name": "OWNER",
          "type": "address"
        }
      ],
      "payable": false,
      "stateMutability": "view",
      "type": "function"
    },
    {
      "constant": true,
      "inputs": [
        {
          "name": "",
          "type": "uint256"
        }
      ],
      "name": "battle_logs",
      "outputs": [
        {
          "name": "Attacker",
          "type": "uint256"
        },
        {
          "name": "DefenderObject",
          "type": "uint256"
        },
        {
          "name": "Defender",
          "type": "uint256"
        },
        {
          "name": "Time",
          "type": "uint256"
        }
      ],
      "payable": false,
      "stateMutability": "view",
      "type": "function"
    },
    {
      "constant": false,
      "inputs": [
        {
          "name": "newOwner",
          "type": "address"
        }
      ],
      "name": "transferOwnership",
      "outputs": [],
      "payable": false,
      "stateMutability": "nonpayable",
      "type": "function"
    },
    {
      "anonymous": false,
      "inputs": [
        {
          "indexed": true,
          "name": "previousOwner",
          "type": "address"
        },
        {
          "indexed": true,
          "name": "newOwner",
          "type": "address"
        }
      ],
      "name": "OwnershipTransferred",
      "type": "event"
    },
    {
      "constant": true,
      "inputs": [],
      "name": "getBalance",
      "outputs": [
        {
          "name": "",
          "type": "uint256"
        }
      ],
      "payable": false,
      "stateMutability": "view",
      "type": "function"
    },
    {
      "constant": false,
      "inputs": [
        {
          "name": "amount",
          "type": "uint256"
        }
      ],
      "name": "withdraw",
      "outputs": [
        {
          "name": "",
          "type": "bool"
        }
      ],
      "payable": false,
      "stateMutability": "nonpayable",
      "type": "function"
    },
    {
      "constant": false,
      "inputs": [
        {
          "name": "heroId",
          "type": "uint256"
        }
      ],
      "name": "heroCreationPayment",
      "outputs": [
        {
          "name": "",
          "type": "uint256"
        },
        {
          "name": "",
          "type": "uint256"
        },
        {
          "name": "",
          "type": "bool"
        }
      ],
      "payable": true,
      "stateMutability": "payable",
      "type": "function"
    },
    {
      "constant": true,
      "inputs": [
        {
          "name": "heroId",
          "type": "uint256"
        }
      ],
      "name": "getPayments",
      "outputs": [
        {
          "name": "",
          "type": "address"
        },
        {
          "name": "",
          "type": "uint256"
        }
      ],
      "payable": false,
      "stateMutability": "view",
      "type": "function"
    },
    {
      "constant": false,
      "inputs": [
        {
          "name": "id",
          "type": "uint256"
        },
        {
          "name": "troopsCap",
          "type": "uint256"
        },
        {
          "name": "leadership",
          "type": "uint256"
        },
        {
          "name": "intelligence",
          "type": "uint256"
        },
        {
          "name": "strength",
          "type": "uint256"
        },
        {
          "name": "speed",
          "type": "uint256"
        },
        {
          "name": "defense",
          "type": "uint256"
        },
        {
          "name": "item1",
          "type": "uint256"
        },
        {
          "name": "item2",
          "type": "uint256"
        },
        {
          "name": "item3",
          "type": "uint256"
        },
        {
          "name": "item4",
          "type": "uint256"
        },
        {
          "name": "item5",
          "type": "uint256"
        }
      ],
      "name": "putHero",
      "outputs": [
        {
          "name": "",
          "type": "bool"
        }
      ],
      "payable": true,
      "stateMutability": "payable",
      "type": "function"
    },
    {
      "constant": true,
      "inputs": [
        {
          "name": "id",
          "type": "uint256"
        }
      ],
      "name": "getHero",
      "outputs": [
        {
          "name": "",
          "type": "address"
        },
        {
          "name": "",
          "type": "uint256"
        },
        {
          "name": "",
          "type": "uint256"
        },
        {
          "name": "",
          "type": "uint256"
        },
        {
          "name": "",
          "type": "uint256"
        },
        {
          "name": "",
          "type": "uint256"
        },
        {
          "name": "",
          "type": "uint256"
        }
      ],
      "payable": false,
      "stateMutability": "view",
      "type": "function"
    },
    {
      "constant": false,
      "inputs": [
        {
          "name": "creationType",
          "type": "uint256"
        },
        {
          "name": "id",
          "type": "uint256"
        },
        {
          "name": "statType",
          "type": "uint256"
        },
        {
          "name": "quality",
          "type": "uint256"
        },
        {
          "name": "generation",
          "type": "uint256"
        },
        {
          "name": "statValue",
          "type": "uint256"
        },
        {
          "name": "level",
          "type": "uint256"
        },
        {
          "name": "xp",
          "type": "uint256"
        },
        {
          "name": "itemOwner",
          "type": "address"
        }
      ],
      "name": "putItem",
      "outputs": [],
      "payable": false,
      "stateMutability": "nonpayable",
      "type": "function"
    },
    {
      "constant": true,
      "inputs": [
        {
          "name": "id",
          "type": "uint256"
        }
      ],
      "name": "getItem",
      "outputs": [
        {
          "name": "",
          "type": "uint256"
        },
        {
          "name": "",
          "type": "uint256"
        },
        {
          "name": "",
          "type": "uint256"
        },
        {
          "name": "",
          "type": "uint256"
        },
        {
          "name": "",
          "type": "uint256"
        },
        {
          "name": "",
          "type": "uint256"
        },
        {
          "name": "",
          "type": "address"
        }
      ],
      "payable": false,
      "stateMutability": "view",
      "type": "function"
    },
    {
      "constant": true,
      "inputs": [
        {
          "name": "battleId",
          "type": "uint256"
        }
      ],
      "name": "getUpdatedItem",
      "outputs": [
        {
          "name": "",
          "type": "uint256"
        }
      ],
      "payable": false,
      "stateMutability": "view",
      "type": "function"
    },
    {
      "constant": false,
      "inputs": [
        {
          "name": "itemIds",
          "type": "uint256[]"
        },
        {
          "name": "battleId",
          "type": "uint256"
        }
      ],
      "name": "updateItemsStats",
      "outputs": [],
      "payable": false,
      "stateMutability": "nonpayable",
      "type": "function"
    },
    {
      "constant": false,
      "inputs": [
        {
          "name": "itemId",
          "type": "uint256"
        },
        {
          "name": "price",
          "type": "uint256"
        },
        {
          "name": "auctionDuration",
          "type": "uint256"
        },
        {
          "name": "city",
          "type": "uint256"
        }
      ],
      "name": "addMarketItem",
      "outputs": [],
      "payable": true,
      "stateMutability": "payable",
      "type": "function"
    },
    {
      "constant": true,
      "inputs": [
        {
          "name": "itemId",
          "type": "uint256"
        }
      ],
      "name": "getMarketItem",
      "outputs": [
        {
          "name": "",
          "type": "uint256"
        },
        {
          "name": "",
          "type": "uint256"
        },
        {
          "name": "",
          "type": "uint256"
        },
        {
          "name": "",
          "type": "uint256"
        },
        {
          "name": "",
          "type": "address"
        }
      ],
      "payable": false,
      "stateMutability": "view",
      "type": "function"
    },
    {
      "constant": false,
      "inputs": [
        {
          "name": "itemId",
          "type": "uint256"
        }
      ],
      "name": "buyMarketItem",
      "outputs": [
        {
          "name": "",
          "type": "bool"
        }
      ],
      "payable": true,
      "stateMutability": "payable",
      "type": "function"
    },
    {
      "constant": false,
      "inputs": [
        {
          "name": "itemId",
          "type": "uint256"
        }
      ],
      "name": "deleteMarketItem",
      "outputs": [
        {
          "name": "",
          "type": "bool"
        }
      ],
      "payable": false,
      "stateMutability": "nonpayable",
      "type": "function"
    },
    {
      "constant": false,
      "inputs": [
        {
          "name": "id",
          "type": "uint256"
        },
        {
          "name": "size",
          "type": "uint256"
        },
        {
          "name": "cofferSize",
          "type": "uint256"
        }
      ],
      "name": "putCity",
      "outputs": [],
      "payable": true,
      "stateMutability": "payable",
      "type": "function"
    },
    {
      "constant": true,
      "inputs": [
        {
          "name": "id",
          "type": "uint256"
        }
      ],
      "name": "getCityData",
      "outputs": [
        {
          "name": "",
          "type": "uint256"
        },
        {
          "name": "",
          "type": "uint256"
        },
        {
          "name": "",
          "type": "uint256"
        }
      ],
      "payable": false,
      "stateMutability": "view",
      "type": "function"
    },
    {
      "constant": true,
      "inputs": [],
      "name": "allCoffers",
      "outputs": [
        {
          "name": "",
          "type": "uint256"
        }
      ],
      "payable": false,
      "stateMutability": "view",
      "type": "function"
    },
    {
      "constant": false,
      "inputs": [],
      "name": "dropCoffer",
      "outputs": [],
      "payable": false,
      "stateMutability": "nonpayable",
      "type": "function"
    },
    {
      "constant": true,
      "inputs": [],
      "name": "getDropCofferBlock",
      "outputs": [
        {
          "name": "",
          "type": "uint256"
        }
      ],
      "payable": false,
      "stateMutability": "view",
      "type": "function"
    },
    {
      "constant": false,
      "inputs": [
        {
          "name": "id",
          "type": "uint256"
        },
        {
          "name": "hero",
          "type": "uint256"
        }
      ],
      "name": "changeStrongholdOwner",
      "outputs": [],
      "payable": false,
      "stateMutability": "nonpayable",
      "type": "function"
    },
    {
      "constant": true,
      "inputs": [
        {
          "name": "shId",
          "type": "uint256"
        }
      ],
      "name": "getStrongholdData",
      "outputs": [
        {
          "name": "",
          "type": "uint256"
        },
        {
          "name": "",
          "type": "uint256"
        }
      ],
      "payable": false,
      "stateMutability": "view",
      "type": "function"
    },
    {
      "constant": false,
      "inputs": [
        {
          "name": "shId",
          "type": "uint256"
        },
        {
          "name": "hId",
          "type": "uint256"
        }
      ],
      "name": "putStronghold",
      "outputs": [
        {
          "name": "",
          "type": "uint256"
        }
      ],
      "payable": false,
      "stateMutability": "nonpayable",
      "type": "function"
    },
    {
      "constant": false,
      "inputs": [
        {
          "name": "shId",
          "type": "uint256"
        },
        {
          "name": "heroId",
          "type": "uint256"
        }
      ],
      "name": "leaveStronghold",
      "outputs": [
        {
          "name": "",
          "type": "bool"
        }
      ],
      "payable": false,
      "stateMutability": "nonpayable",
      "type": "function"
    },
    {
      "constant": false,
      "inputs": [
        {
          "name": "id",
          "type": "uint256"
        }
      ],
      "name": "addStrongholdReward",
      "outputs": [
        {
          "name": "",
          "type": "bool"
        }
      ],
      "payable": false,
      "stateMutability": "nonpayable",
      "type": "function"
    },
    {
      "constant": false,
      "inputs": [
        {
          "name": "id",
          "type": "uint256"
        },
        {
          "name": "resultType",
          "type": "uint256[]"
        },
        {
          "name": "attacker",
          "type": "uint256"
        },
        {
          "name": "attackerTroops",
          "type": "uint256[]"
        },
        {
          "name": "attackerItems",
          "type": "uint256[]"
        },
        {
          "name": "defenderObject",
          "type": "uint256"
        },
        {
          "name": "defender",
          "type": "uint256"
        },
        {
          "name": "defenderTroops",
          "type": "uint256[]"
        },
        {
          "name": "defenderItems",
          "type": "uint256[]"
        }
      ],
      "name": "addBattleLog",
      "outputs": [
        {
          "name": "",
          "type": "bool"
        }
      ],
      "payable": true,
      "stateMutability": "payable",
      "type": "function"
    },
    {
      "constant": true,
      "inputs": [],
      "name": "getDropItemBlock",
      "outputs": [
        {
          "name": "",
          "type": "uint256"
        }
      ],
      "payable": false,
      "stateMutability": "view",
      "type": "function"
    },
    {
      "constant": false,
      "inputs": [
        {
          "name": "itemId",
          "type": "uint256"
        }
      ],
      "name": "dropItems",
      "outputs": [
        {
          "name": "",
          "type": "string"
        }
      ],
      "payable": false,
      "stateMutability": "nonpayable",
      "type": "function"
    },
    {
      "constant": true,
      "inputs": [
        {
          "name": "blockAsKey",
          "type": "uint256"
        }
      ],
      "name": "getDropData",
      "outputs": [
        {
          "name": "",
          "type": "uint256"
        },
        {
          "name": "",
          "type": "uint256"
        },
        {
          "name": "",
          "type": "uint256"
        },
        {
          "name": "",
          "type": "uint256"
        }
      ],
      "payable": false,
      "stateMutability": "view",
      "type": "function"
    }
  ],
  "bytecode": "0x608060405261708060015561a8c060025562015180600355631dcd65006004556302faf08060055563053ec6006006556305f5e100600755630bebc200600855631dcd65006009556305f5e100600a556001600b556002600c556003600d556001600e556002600f556003601055620000866200015d640100000000026401000000009004565b60115543606855600160695543608b556001608c55336000806101000a81548173ffffffffffffffffffffffffffffffffffffffff021916908373ffffffffffffffffffffffffffffffffffffffff1602179055506000809054906101000a900473ffffffffffffffffffffffffffffffffffffffff1673ffffffffffffffffffffffffffffffffffffffff16600073ffffffffffffffffffffffffffffffffffffffff167f8be0079c531659141344cd1fd0a4f28419497f9722a3daafe3b4186f6b6457e060405160405180910390a3620001a6565b6000806000809150600090505b60108110156200019e576017816010811015156200018457fe5b60050201600301548201915080806001019150506200016a565b819250505090565b614ec580620001b66000396000f3006080604052600436106101f9576000357c0100000000000000000000000000000000000000000000000000000000900463ffffffff1680630645681e146101fe5780630c4b788b1461024657806310334f241461027157806312065fe01461030457806313440f2b1461032f5780631d5e04871461038c57806321d80111146103fc5780632e1a7d4d146104935780633129e773146104d8578063351901c31461056f5780633e4786d8146105a75780634582ba0f1461064d57806352dc6c5f1461069c57806355da998b146106c75780636205e6371461072e57806368fc8fc3146107625780636a51b918146107a85780636c241bb1146108055780636c26cfb4146108545780637088a74f14610895578063715018a6146108ee57806380fa97e314610905578063817ef9a81461093c5780638da5cb5b14610ae15780638e1d329314610b385780638f32d59b14610b7957806393af4a6f14610ba8578063a9c0714514610bf3578063aca99bdc14610c38578063ad513a2f14610c4f578063b7f0c3a014610c9e578063b884740814610ce6578063bdbee6d014610d24578063be91484c14610d4f578063bfb231d214610da5578063c55c608a14610e3c578063c7be7a4914610e81578063e2ce5f1c14610f0a578063ecd3631c14610f60578063f2fde38b14611006578063fe36519914611049575b600080fd5b34801561020a57600080fd5b50610229600480360381019080803590602001909291905050506110bd565b604051808381526020018281526020019250505060405180910390f35b34801561025257600080fd5b5061025b6110e1565b6040518082815260200191505060405180910390f35b34801561027d57600080fd5b506103026004803603810190808035906020019092919080359060200190929190803590602001909291908035906020019092919080359060200190929190803590602001909291908035906020019092919080359060200190929190803573ffffffffffffffffffffffffffffffffffffffff1690602001909291905050506110eb565b005b34801561031057600080fd5b506103196112b1565b6040518082815260200191505060405180910390f35b34801561033b57600080fd5b5061035a600480360381019080803590602001909291905050506112d0565b604051808681526020018581526020018481526020018381526020018281526020019550505050505060405180910390f35b34801561039857600080fd5b506103fa6004803603810190808035906020019082018035906020019080806020026020016040519081016040528093929190818152602001838360200280828437820191505050505050919291929080359060200190929190505050611306565b005b34801561040857600080fd5b5061042760048036038101908080359060200190929190505050611792565b604051808873ffffffffffffffffffffffffffffffffffffffff1673ffffffffffffffffffffffffffffffffffffffff16815260200187815260200186815260200185815260200184815260200183815260200182815260200197505050505050505060405180910390f35b34801561049f57600080fd5b506104be60048036038101908080359060200190929190505050611877565b604051808215151515815260200191505060405180910390f35b3480156104e457600080fd5b50610503600480360381019080803590602001909291905050506118d5565b604051808881526020018781526020018681526020018581526020018481526020018381526020018273ffffffffffffffffffffffffffffffffffffffff1673ffffffffffffffffffffffffffffffffffffffff16815260200197505050505050505060405180910390f35b61058d600480360381019080803590602001909291905050506119ba565b604051808215151515815260200191505060405180910390f35b610633600480360381019080803590602001909291908035906020019092919080359060200190929190803590602001909291908035906020019092919080359060200190929190803590602001909291908035906020019092919080359060200190929190803590602001909291908035906020019092919080359060200190929190505050611d38565b604051808215151515815260200191505060405180910390f35b34801561065957600080fd5b50610678600480360381019080803590602001909291905050506125ec565b60405180848152602001838152602001828152602001935050505060405180910390f35b3480156106a857600080fd5b506106b161261b565b6040518082815260200191505060405180910390f35b3480156106d357600080fd5b506106fc6004803603810190808035906020019092919080359060200190929190505050612625565b604051808681526020018581526020018481526020018381526020018281526020019550505050505060405180910390f35b61076060048036038101908080359060200190929190803590602001909291908035906020019092919050505061266d565b005b6107806004803603810190808035906020019092919050505061279d565b6040518084815260200183815260200182151515158152602001935050505060405180910390f35b3480156107b457600080fd5b506107d3600480360381019080803590602001909291905050506128c3565b604051808681526020018581526020018481526020018381526020018281526020019550505050505060405180910390f35b34801561081157600080fd5b50610830600480360381019080803590602001909291905050506128fe565b60405180848152602001838152602001828152602001935050505060405180910390f35b34801561086057600080fd5b5061087f6004803603810190808035906020019092919050505061295e565b6040518082815260200191505060405180910390f35b3480156108a157600080fd5b506108ca6004803603810190808035906020019092919080359060200190929190505050612976565b60405180848152602001838152602001828152602001935050505060405180910390f35b3480156108fa57600080fd5b506109036129b2565b005b34801561091157600080fd5b5061093a6004803603810190808035906020019092919080359060200190929190505050612a84565b005b610ac7600480360381019080803590602001909291908035906020019082018035906020019080806020026020016040519081016040528093929190818152602001838360200280828437820191505050505050919291929080359060200190929190803590602001908201803590602001908080602002602001604051908101604052809392919081815260200183836020028082843782019150505050505091929192908035906020019082018035906020019080806020026020016040519081016040528093929190818152602001838360200280828437820191505050505050919291929080359060200190929190803590602001909291908035906020019082018035906020019080806020026020016040519081016040528093929190818152602001838360200280828437820191505050505050919291929080359060200190820180359060200190808060200260200160405190810160405280939291908181526020018383602002808284378201915050505050509192919290505050612c8c565b604051808215151515815260200191505060405180910390f35b348015610aed57600080fd5b50610af661347f565b604051808273ffffffffffffffffffffffffffffffffffffffff1673ffffffffffffffffffffffffffffffffffffffff16815260200191505060405180910390f35b348015610b4457600080fd5b50610b63600480360381019080803590602001909291905050506134a8565b6040518082815260200191505060405180910390f35b348015610b8557600080fd5b50610b8e6134c5565b604051808215151515815260200191505060405180910390f35b348015610bb457600080fd5b50610bdd600480360381019080803590602001909291908035906020019092919050505061351c565b6040518082815260200191505060405180910390f35b348015610bff57600080fd5b50610c1e60048036038101908080359060200190929190505050613630565b604051808215151515815260200191505060405180910390f35b348015610c4457600080fd5b50610c4d613771565b005b348015610c5b57600080fd5b50610c846004803603810190808035906020019092919080359060200190929190505050613927565b604051808215151515815260200191505060405180910390f35b348015610caa57600080fd5b50610cc960048036038101908080359060200190929190505050613ae1565b604051808381526020018281526020019250505060405180910390f35b610d2260048036038101908080359060200190929190803590602001909291908035906020019092919080359060200190929190505050613b21565b005b348015610d3057600080fd5b50610d39613ef8565b6040518082815260200191505060405180910390f35b348015610d5b57600080fd5b50610d7a60048036038101908080359060200190929190505050613f3e565b6040518085815260200184815260200183815260200182815260200194505050505060405180910390f35b348015610db157600080fd5b50610dd060048036038101908080359060200190929190505050613fbe565b604051808881526020018781526020018681526020018581526020018481526020018381526020018273ffffffffffffffffffffffffffffffffffffffff1673ffffffffffffffffffffffffffffffffffffffff16815260200197505050505050505060405180910390f35b348015610e4857600080fd5b50610e6760048036038101908080359060200190929190505050614020565b604051808215151515815260200191505060405180910390f35b348015610e8d57600080fd5b50610eac60048036038101908080359060200190929190505050614079565b604051808681526020018581526020018481526020018381526020018273ffffffffffffffffffffffffffffffffffffffff1673ffffffffffffffffffffffffffffffffffffffff1681526020019550505050505060405180910390f35b348015610f1657600080fd5b50610f3560048036038101908080359060200190929190505050614127565b6040518085815260200184815260200183815260200182815260200194505050505060405180910390f35b348015610f6c57600080fd5b50610f8b60048036038101908080359060200190929190505050614157565b6040518080602001828103825283818151815260200191508051906020019080838360005b83811015610fcb578082015181840152602081019050610fb0565b50505050905090810190601f168015610ff85780820380516001836020036101000a031916815260200191505b509250505060405180910390f35b34801561101257600080fd5b50611047600480360381019080803573ffffffffffffffffffffffffffffffffffffffff169060200190929190505050614287565b005b34801561105557600080fd5b50611074600480360381019080803590602001909291905050506142a6565b604051808373ffffffffffffffffffffffffffffffffffffffff1673ffffffffffffffffffffffffffffffffffffffff1681526020018281526020019250505060405180910390f35b60896020528060005260406000206000915090508060000154908060010154905082565b6000608b54905090565b6110f36134c5565b15156110fe57600080fd5b600088111515611176576040517f08c379a000000000000000000000000000000000000000000000000000000000815260040180806020018281038252601e8152602001807f506c6561736520696e7365727420696420686967686572207468616e2030000081525060200191505060405180910390fd5b600073ffffffffffffffffffffffffffffffffffffffff168173ffffffffffffffffffffffffffffffffffffffff1614156111af573390505b60e0604051908101604052808881526020018781526020018681526020018581526020018481526020018381526020018273ffffffffffffffffffffffffffffffffffffffff16815250601460008a8152602001908152602001600020600082015181600001556020820151816001015560408201518160020155606082015181600301556080820151816004015560a0820151816005015560c08201518160060160006101000a81548173ffffffffffffffffffffffffffffffffffffffff021916908373ffffffffffffffffffffffffffffffffffffffff16021790555090505060008914156112a6576112a488614020565b505b505050505050505050565b60003073ffffffffffffffffffffffffffffffffffffffff1631905090565b608d6020528060005260406000206000915090508060000154908060010154908060020154908060030154908060040154905085565b6000611310614de0565b600080600080600080965060a0604051908101604052808881526020018881526020018881526020018881526020018881525095508694508693505b88518410156113e05786898581518110151561136457fe5b906020019060200201511415156113d357611395898581518110151561138657fe5b90602001906020020151614300565b156113d25788848151811015156113a857fe5b9060200190602002015186866005811015156113c057fe5b60200201818152505084806001019550505b5b838060010194505061134c565b868514156113ed57611787565b6113f56112b1565b6113fe336144a5565b60ff164301019250611410838661458f565b60ff169150818060019003925050858260058110151561142c57fe5b6020020151905060026014600083815260200190815260200160002060050154016014600083815260200190815260200160002060050181905550600060146000838152602001908152602001600020600401541480156114a3575060026014600083815260200190815260200160002060050154145b806114e65750600160146000838152602001908152602001600020600401541480156114e5575060066014600083815260200190815260200160002060050154145b5b806115285750600260146000838152602001908152602001600020600401541480156115275750601480600083815260200190815260200160002060050154145b5b8061156b57506003601460008381526020019081526020016000206004015414801561156a575060306014600083815260200190815260200160002060050154145b5b806115ae5750600460146000838152602001908152602001600020600401541480156115ad5750605c6014600083815260200190815260200160002060050154145b5b806115f15750600560146000838152602001908152602001600020600401541480156115f0575060986014600083815260200190815260200160002060050154145b5b80611634575060066014600083815260200190815260200160002060040154148015611633575060e46014600083815260200190815260200160002060050154145b5b80611678575060076014600083815260200190815260200160002060040154148015611677575061013e6014600083815260200190815260200160002060050154145b5b806116bc5750600860146000838152602001908152602001600020600401541480156116bb57506101b26014600083815260200190815260200160002060050154145b5b806117005750600960146000838152602001908152602001600020600401541480156116ff57506102446014600083815260200190815260200160002060050154145b5b1561176e5760016014600083815260200190815260200160002060040154016014600083815260200190815260200160002060040181905550600160146000838152602001908152602001600020600301540160146000838152602001908152602001600020600301819055505b80601560008a8152602001908152602001600020819055505b505050505050505050565b60008060008060008060006013600089815260200190815260200160002060000160009054906101000a900473ffffffffffffffffffffffffffffffffffffffff16601360008a815260200190815260200160002060010154601360008b815260200190815260200160002060020154601360008c815260200190815260200160002060030154601360008d815260200190815260200160002060040154601360008e815260200190815260200160002060050154601360008f8152602001908152602001600020600601549650965096509650965096509650919395979092949650565b60008061188261347f565b90508073ffffffffffffffffffffffffffffffffffffffff166108fc849081150290604051600060405180830381858888f193505050501580156118ca573d6000803e3d6000fd5b506001915050919050565b60008060008060008060006014600089815260200190815260200160002060000154601460008a815260200190815260200160002060010154601460008b815260200190815260200160002060020154601460008c815260200190815260200160002060030154601460008d815260200190815260200160002060040154601460008e815260200190815260200160002060050154601460008f815260200190815260200160002060060160009054906101000a900473ffffffffffffffffffffffffffffffffffffffff169650965096509650965096509650919395979092949650565b600080600080600080426016600089815260200190815260200160002060010154601660008a8152602001908152602001600020600201540110151515611a69576040517f08c379a000000000000000000000000000000000000000000000000000000000815260040180806020018281038252601e8152602001807f41756374696f6e206973206e6f206c6f6e67657220617661696c61626c65000081525060200191505060405180910390fd5b606e6064601660008a815260200190815260200160002060000154811515611a8d57fe5b040234141515611b05576040517f08c379a000000000000000000000000000000000000000000000000000000000815260040180806020018281038252601b8152602001807f5468652076616c75652073656e7420697320696e636f7272656374000000000081525060200191505060405180910390fd5b60166000888152602001908152602001600020600301549450601785601081101515611b2d57fe5b600502016001015493506013600085815260200190815260200160002060000160009054906101000a900473ffffffffffffffffffffffffffffffffffffffff1692506016600088815260200190815260200160002060040160009054906101000a900473ffffffffffffffffffffffffffffffffffffffff16915034905060008373ffffffffffffffffffffffffffffffffffffffff161115611c22578273ffffffffffffffffffffffffffffffffffffffff166108fc6005606e84811515611bf357fe5b04029081150290604051600060405180830381858888f19350505050158015611c20573d6000803e3d6000fd5b505b8173ffffffffffffffffffffffffffffffffffffffff166108fc6064606e84811515611c4a57fe5b04029081150290604051600060405180830381858888f19350505050158015611c77573d6000803e3d6000fd5b50336014600089815260200190815260200160002060060160006101000a81548173ffffffffffffffffffffffffffffffffffffffff021916908373ffffffffffffffffffffffffffffffffffffffff160217905550601660008881526020019081526020016000206000808201600090556001820160009055600282016000905560038201600090556004820160006101000a81549073ffffffffffffffffffffffffffffffffffffffff02191690555050600195505050505050919050565b600060045434141515611db3576040517f08c379a000000000000000000000000000000000000000000000000000000000815260040180806020018281038252601a8152602001807f5061796d656e742066656520646f6573206e6f74206d6174636800000000000081525060200191505060405180910390fd5b60008d111515611e2b576040517f08c379a000000000000000000000000000000000000000000000000000000000815260040180806020018281038252601e8152602001807f506c6561736520696e7365727420696420686967686572207468616e2030000081525060200191505060405180910390fd5b600073ffffffffffffffffffffffffffffffffffffffff16601360008f815260200190815260200160002060000160009054906101000a900473ffffffffffffffffffffffffffffffffffffffff1673ffffffffffffffffffffffffffffffffffffffff16141515611f05576040517f08c379a00000000000000000000000000000000000000000000000000000000081526004018080602001828103825260208152602001807f4865726f2077697468207468697320696420616c72656164792065786973747381525060200191505060405180910390fd5b600073ffffffffffffffffffffffffffffffffffffffff166014600088815260200190815260200160002060060160009054906101000a900473ffffffffffffffffffffffffffffffffffffffff1673ffffffffffffffffffffffffffffffffffffffff1614151515611fe0576040517f08c379a00000000000000000000000000000000000000000000000000000000081526004018080602001828103825260118152602001807f4974656d206973206e6f7420657869737400000000000000000000000000000081525060200191505060405180910390fd5b600073ffffffffffffffffffffffffffffffffffffffff166014600087815260200190815260200160002060060160009054906101000a900473ffffffffffffffffffffffffffffffffffffffff1673ffffffffffffffffffffffffffffffffffffffff16141515156120bb576040517f08c379a00000000000000000000000000000000000000000000000000000000081526004018080602001828103825260118152602001807f4974656d206973206e6f7420657869737400000000000000000000000000000081525060200191505060405180910390fd5b600073ffffffffffffffffffffffffffffffffffffffff166014600086815260200190815260200160002060060160009054906101000a900473ffffffffffffffffffffffffffffffffffffffff1673ffffffffffffffffffffffffffffffffffffffff1614151515612196576040517f08c379a00000000000000000000000000000000000000000000000000000000081526004018080602001828103825260118152602001807f4974656d206973206e6f7420657869737400000000000000000000000000000081525060200191505060405180910390fd5b600073ffffffffffffffffffffffffffffffffffffffff166014600085815260200190815260200160002060060160009054906101000a900473ffffffffffffffffffffffffffffffffffffffff1673ffffffffffffffffffffffffffffffffffffffff1614151515612271576040517f08c379a00000000000000000000000000000000000000000000000000000000081526004018080602001828103825260118152602001807f4974656d206973206e6f7420657869737400000000000000000000000000000081525060200191505060405180910390fd5b600073ffffffffffffffffffffffffffffffffffffffff166014600084815260200190815260200160002060060160009054906101000a900473ffffffffffffffffffffffffffffffffffffffff1673ffffffffffffffffffffffffffffffffffffffff161415151561234c576040517f08c379a00000000000000000000000000000000000000000000000000000000081526004018080602001828103825260118152602001807f4974656d206973206e6f7420657869737400000000000000000000000000000081525060200191505060405180910390fd5b60e0604051908101604052803373ffffffffffffffffffffffffffffffffffffffff1681526020018d81526020018c81526020018b81526020018a815260200189815260200188815250601360008f815260200190815260200160002060008201518160000160006101000a81548173ffffffffffffffffffffffffffffffffffffffff021916908373ffffffffffffffffffffffffffffffffffffffff1602179055506020820151816001015560408201518160020155606082015181600301556080820151816004015560a0820151816005015560c08201518160060155905050336014600088815260200190815260200160002060060160006101000a81548173ffffffffffffffffffffffffffffffffffffffff021916908373ffffffffffffffffffffffffffffffffffffffff160217905550336014600087815260200190815260200160002060060160006101000a81548173ffffffffffffffffffffffffffffffffffffffff021916908373ffffffffffffffffffffffffffffffffffffffff160217905550336014600086815260200190815260200160002060060160006101000a81548173ffffffffffffffffffffffffffffffffffffffff021916908373ffffffffffffffffffffffffffffffffffffffff160217905550336014600085815260200190815260200160002060060160006101000a81548173ffffffffffffffffffffffffffffffffffffffff021916908373ffffffffffffffffffffffffffffffffffffffff160217905550336014600084815260200190815260200160002060060160006101000a81548173ffffffffffffffffffffffffffffffffffffffff021916908373ffffffffffffffffffffffffffffffffffffffff160217905550600190509c9b505050505050505050505050565b606a81600a811015156125fb57fe5b600302016000915090508060000154908060010154908060020154905083565b6000606854905090565b60676020528160005260406000208160108110151561264057fe5b60050201600091509150508060000154908060010154908060020154908060030154908060040154905085565b60006126776134c5565b151561268257600080fd5b813414151561271f576040517f08c379a00000000000000000000000000000000000000000000000000000000081526004018080602001828103825260238152602001807f6d73672e76616c756520646f6573206e6f74206d6174636820636f666665725381526020017f697a65000000000000000000000000000000000000000000000000000000000081525060400191505060405180910390fd5b6000905060a060405190810160405280858152602001828152602001848152602001838152602001600081525060176001860360108110151561275e57fe5b60050201600082015181600001556020820151816001015560408201518160020155606082015181600301556080820151816004015590505050505050565b60008060006004543414151561281b576040517f08c379a000000000000000000000000000000000000000000000000000000000815260040180806020018281038252601a8152602001807f5061796d656e742066656520646f6573206e6f74206d6174636800000000000081525060200191505060405180910390fd5b60408051908101604052803373ffffffffffffffffffffffffffffffffffffffff168152602001858152506012600086815260200190815260200160002060008201518160000160006101000a81548173ffffffffffffffffffffffffffffffffffffffff021916908373ffffffffffffffffffffffffffffffffffffffff160217905550602082015181600101559050503460045460045434149250925092509193909250565b6017816010811015156128d257fe5b600502016000915090508060000154908060010154908060020154908060030154908060040154905085565b600080600060176001850360108110151561291557fe5b600502016001015460176001860360108110151561292f57fe5b600502016002015460176001870360108110151561294957fe5b60050201600301549250925092509193909250565b60156020528060005260406000206000915090505481565b608860205281600052604060002081600a8110151561299157fe5b60030201600091509150508060000154908060010154908060020154905083565b6129ba6134c5565b15156129c557600080fd5b600073ffffffffffffffffffffffffffffffffffffffff166000809054906101000a900473ffffffffffffffffffffffffffffffffffffffff1673ffffffffffffffffffffffffffffffffffffffff167f8be0079c531659141344cd1fd0a4f28419497f9722a3daafe3b4186f6b6457e060405160405180910390a360008060006101000a81548173ffffffffffffffffffffffffffffffffffffffff021916908373ffffffffffffffffffffffffffffffffffffffff160217905550565b600073ffffffffffffffffffffffffffffffffffffffff166013600083815260200190815260200160002060000160009054906101000a900473ffffffffffffffffffffffffffffffffffffffff1673ffffffffffffffffffffffffffffffffffffffff1614151515612b5f576040517f08c379a00000000000000000000000000000000000000000000000000000000081526004018080602001828103825260158152602001807f5468657265206973206e6f2073756368206865726f000000000000000000000081525060200191505060405180910390fd5b3373ffffffffffffffffffffffffffffffffffffffff166013600083815260200190815260200160002060000160009054906101000a900473ffffffffffffffffffffffffffffffffffffffff1673ffffffffffffffffffffffffffffffffffffffff16141515612c38576040517f08c379a00000000000000000000000000000000000000000000000000000000081526004018080602001828103825260168152602001807f596f7520646f6e74206f776e2074686973206865726f0000000000000000000081525060200191505060405180910390fd5b60606040519081016040528083815260200182815260200143815250606a83600a81101515612c6357fe5b600302016000820151816000015560208201518160010155604082015181600201559050505050565b60008060028a5111158015612cba575060028a6000815181101515612cad57fe5b9060200190602002015111155b8015612cdf575060038a6001815181101515612cd257fe5b9060200190602002015111155b1515612d79576040517f08c379a000000000000000000000000000000000000000000000000000000000815260040180806020018281038252603d8152602001807f496e636f7272656374206e756d626572206f6620726573756c7420706172616d81526020017f6574726573206f7220696e636f727265637420706172616d657472657300000081525060400191505060405180910390fd5b60028851141515612e18576040517f08c379a00000000000000000000000000000000000000000000000000000000081526004018080602001828103825260308152602001807f496e636f7272656374206e756d626572206f6620617267756d656e747320666f81526020017f722061747461636b657254726f6f70730000000000000000000000000000000081525060400191505060405180910390fd5b6005875111151515612eb8576040517f08c379a00000000000000000000000000000000000000000000000000000000081526004018080602001828103825260228152602001807f696e636f7272656374206e756d626572206f662061747461636b65722069746581526020017f6d7300000000000000000000000000000000000000000000000000000000000081525060400191505060405180910390fd5b60028451141515612f57576040517f08c379a00000000000000000000000000000000000000000000000000000000081526004018080602001828103825260308152602001807f496e636f7272656374206e756d626572206f6620617267756d656e747320666f81526020017f7220646566656e64657254726f6f70730000000000000000000000000000000081525060400191505060405180910390fd5b6005835111151515612ff7576040517f08c379a00000000000000000000000000000000000000000000000000000000081526004018080602001828103825260228152602001807f696e636f7272656374206e756d626572206f6620646566656e6465722069746581526020017f6d7300000000000000000000000000000000000000000000000000000000000081525060400191505060405180910390fd5b600f548a600181518110151561300957fe5b9060200190602002015114156130975760085434141515613092576040517f08c379a00000000000000000000000000000000000000000000000000000000081526004018080602001828103825260148152602001807f496e636f72726563742066656520616d6f756e7400000000000000000000000081525060200191505060405180910390fd5b6131d5565b600e548a60018151811015156130a957fe5b90602001906020020151141561313757600a5434141515613132576040517f08c379a00000000000000000000000000000000000000000000000000000000081526004018080602001828103825260148152602001807f496e636f72726563742066656520616d6f756e7400000000000000000000000081525060200191505060405180910390fd5b6131d4565b6010548a600181518110151561314957fe5b9060200190602002015114156131d357600954341415156131d2576040517f08c379a00000000000000000000000000000000000000000000000000000000081526004018080602001828103825260148152602001807f496e636f72726563742066656520616d6f756e7400000000000000000000000081525060200191505060405180910390fd5b5b5b5b429050610120604051908101604052808b81526020018a815260200189815260200188815260200187815260200186815260200185815260200184815260200182815250608a60008d81526020019081526020016000206000820151816000019080519060200190613248929190614e03565b5060208201518160010155604082015181600201908051906020019061326f929190614e03565b50606082015181600301908051906020019061328c929190614e03565b506080820151816004015560a0820151816005015560c08201518160060190805190602001906132bd929190614e03565b5060e08201518160070190805190602001906132da929190614e03565b506101008201518160080155905050600b548a60008151811015156132fb57fe5b9060200190602002015114801561332b5750600e548a600181518110151561331f57fe5b90602001906020020151145b156133715788606a60018803600a8110151561334357fe5b600302016001018190555043606a60018803600a8110151561336157fe5b600302016002018190555061346d565b600f548a600181518110151561338357fe5b90602001906020020151141561343e5760026008548115156133a157fe5b046017600188036010811015156133b457fe5b6005020160030154016017600188036010811015156133cf57fe5b6005020160030181905550600b548a60008151811015156133ec57fe5b906020019060200201511415613439578860176001880360108110151561340f57fe5b60050201600101819055504360176001880360108110151561342d57fe5b60050201600401819055505b61346c565b6010548a600181518110151561345057fe5b90602001906020020151141561346b5761346a878c611306565b5b5b5b60019150509998505050505050505050565b60008060009054906101000a900473ffffffffffffffffffffffffffffffffffffffff16905090565b600060156000838152602001908152602001600020549050919050565b60008060009054906101000a900473ffffffffffffffffffffffffffffffffffffffff1673ffffffffffffffffffffffffffffffffffffffff163373ffffffffffffffffffffffffffffffffffffffff1614905090565b600080606a60018503600a8110151561353157fe5b60030201600201541415156135d4576040517f08c379a00000000000000000000000000000000000000000000000000000000081526004018080602001828103825260218152602001807f5374726f6e67686f6c642063616e206e6f74206265206f76657277726974746581526020017f6e0000000000000000000000000000000000000000000000000000000000000081525060400191505060405180910390fd5b60606040519081016040528084815260200183815260200143815250606a60018503600a8110151561360257fe5b6003020160008201518160000155602082015181600101556040820151816002015590505043905092915050565b60003373ffffffffffffffffffffffffffffffffffffffff166016600084815260200190815260200160002060040160009054906101000a900473ffffffffffffffffffffffffffffffffffffffff1673ffffffffffffffffffffffffffffffffffffffff1614151561370b576040517f08c379a00000000000000000000000000000000000000000000000000000000081526004018080602001828103825260188152602001807f596f7520646f206e6f74206f776e2074686973206974656d000000000000000081525060200191505060405180910390fd5b601660008381526020019081526020016000206000808201600090556001820160009055600282016000905560038201600090556004820160006101000a81549073ffffffffffffffffffffffffffffffffffffffff0219169055505060019050919050565b60008060008060695460685443031115156137f4576040517f08c379a00000000000000000000000000000000000000000000000000000000081526004018080602001828103825260168152602001807f506c656173652074727920616761696e206c617465720000000000000000000081525060200191505060405180910390fd5b43606881905550600093505b60108410156139215760178460108110151561381857fe5b600502016001015492506013600084815260200190815260200160002060000160009054906101000a900473ffffffffffffffffffffffffffffffffffffffff169150601e606460178660108110151561386e57fe5b600502016003015481151561387f57fe5b040290506046606460178660108110151561389657fe5b60050201600301548115156138a757fe5b04026017856010811015156138b857fe5b60050201600301819055506000831115613914578173ffffffffffffffffffffffffffffffffffffffff166108fc829081150290604051600060405180830381858888f19350505050158015613912573d6000803e3d6000fd5b505b8380600101945050613800565b50505050565b600081606a60018503600a8110151561393c57fe5b60030201600101541415156139df576040517f08c379a00000000000000000000000000000000000000000000000000000000081526004018080602001828103825260268152602001807f53656c6563746564206865726f206973206e6f7420696e20746865207374726f81526020017f6e67686f6c64000000000000000000000000000000000000000000000000000081525060400191505060405180910390fd5b3373ffffffffffffffffffffffffffffffffffffffff166013600084815260200190815260200160002060000160009054906101000a900473ffffffffffffffffffffffffffffffffffffffff1673ffffffffffffffffffffffffffffffffffffffff16141515613ab8576040517f08c379a00000000000000000000000000000000000000000000000000000000081526004018080602001828103825260188152602001807f596f7520646f206e6f74206f776e2074686973206865726f000000000000000081525060200191505060405180910390fd5b6000606a60018503600a81101515613acc57fe5b60030201600101819055506001905092915050565b600080606a60018403600a81101515613af657fe5b6003020160010154606a60018503600a81101515613b1057fe5b600302016002015491509150915091565b6000803373ffffffffffffffffffffffffffffffffffffffff166014600088815260200190815260200160002060060160009054906101000a900473ffffffffffffffffffffffffffffffffffffffff1673ffffffffffffffffffffffffffffffffffffffff16141515613bfd576040517f08c379a00000000000000000000000000000000000000000000000000000000081526004018080602001828103825260178152602001807f596f7520646f6e2774206f776e2074686973206974656d00000000000000000081525060200191505060405180910390fd5b600154841480613c0e575060025484145b80613c1a575060035484145b1515613c8e576040517f08c379a000000000000000000000000000000000000000000000000000000000815260040180806020018281038252601a8152602001807f496e636f72726563742061756374696f6e206475726174696f6e00000000000081525060200191505060405180910390fd5b600154841415613d165760055434141515613d11576040517f08c379a00000000000000000000000000000000000000000000000000000000081526004018080602001828103825260148152602001807f496e636f72726563742066656520616d6f756e7400000000000000000000000081525060200191505060405180910390fd5b613e24565b600254841415613d9e5760065434141515613d99576040517f08c379a00000000000000000000000000000000000000000000000000000000081526004018080602001828103825260148152602001807f496e636f72726563742066656520616d6f756e7400000000000000000000000081525060200191505060405180910390fd5b613e23565b600354841415613e225760075434141515613e21576040517f08c379a00000000000000000000000000000000000000000000000000000000081526004018080602001828103825260148152602001807f496e636f72726563742066656520616d6f756e7400000000000000000000000081525060200191505060405180910390fd5b5b5b5b33915042905060a0604051908101604052808681526020018581526020018281526020016001850381526020018373ffffffffffffffffffffffffffffffffffffffff16815250601660008881526020019081526020016000206000820151816000015560208201518160010155604082015181600201556060820151816003015560808201518160040160006101000a81548173ffffffffffffffffffffffffffffffffffffffff021916908373ffffffffffffffffffffffffffffffffffffffff160217905550905050505050505050565b6000806000809150600090505b6010811015613f3657601781601081101515613f1d57fe5b6005020160030154820191508080600101915050613f05565b819250505090565b6000806000806000851415613f5357608b5494505b608d600086815260200190815260200160002060010154608d600087815260200190815260200160002060020154608d600088815260200190815260200160002060030154608d60008981526020019081526020016000206004015493509350935093509193509193565b60146020528060005260406000206000915090508060000154908060010154908060020154908060030154908060040154908060050154908060060160009054906101000a900473ffffffffffffffffffffffffffffffffffffffff16905087565b600061402a6134c5565b151561403557600080fd5b604080519081016040528083815260200143815250608960008481526020019081526020016000206000820151816000015560208201518160010155905050919050565b6000806000806000601660008781526020019081526020016000206000015460166000888152602001908152602001600020600101546016600089815260200190815260200160002060020154601660008a815260200190815260200160002060030154601660008b815260200190815260200160002060040160009054906101000a900473ffffffffffffffffffffffffffffffffffffffff169450945094509450945091939590929450565b608a6020528060005260406000206000915090508060010154908060040154908060050154908060080154905084565b60606141616134c5565b151561416c57600080fd5b600060896000848152602001908152602001600020600001541115156141fa576040517f08c379a00000000000000000000000000000000000000000000000000000000081526004018080602001828103825260118152602001807f4e6f74206120726577617264206974656d00000000000000000000000000000081525060200191505060405180910390fd5b608c54608b544303111515614277576040517f08c379a00000000000000000000000000000000000000000000000000000000081526004018080602001828103825260168152602001807f506c656173652074727920616761696e206c617465720000000000000000000081525060200191505060405180910390fd5b6142808261463d565b9050919050565b61428f6134c5565b151561429a57600080fd5b6142a3816149c1565b50565b6000806012600084815260200190815260200160002060000160009054906101000a900473ffffffffffffffffffffffffffffffffffffffff16601260008581526020019081526020016000206001015491509150915091565b6000806014600084815260200190815260200160002060030154141561432957600090506144a0565b60016014600084815260200190815260200160002060010154148015614365575060036014600084815260200190815260200160002060040154145b1561437357600090506144a0565b600260146000848152602001908152602001600020600101541480156143af575060056014600084815260200190815260200160002060040154145b156143bd57600090506144a0565b600360146000848152602001908152602001600020600101541480156143f9575060076014600084815260200190815260200160002060040154145b1561440757600090506144a0565b60046014600084815260200190815260200160002060010154148015614443575060096014600084815260200190815260200160002060040154145b1561445157600090506144a0565b6005601460008481526020019081526020016000206001015414801561448d5750600a6014600084815260200190815260200160002060040154145b1561449b57600090506144a0565b600190505b919050565b6000610100424484604051602001808481526020018381526020018273ffffffffffffffffffffffffffffffffffffffff1673ffffffffffffffffffffffffffffffffffffffff166c0100000000000000000000000002815260140193505050506040516020818303038152906040526040518082805190602001908083835b60208310151561454a5780518252602082019150602081019050602083039250614525565b6001836020036101000a03801982511681845116808217855250505050505090500191505060405180910390206001900481151561458457fe5b066001019050919050565b6000814244856040516020018084815260200183815260200182815260200193505050506040516020818303038152906040526040518082805190602001908083835b6020831015156145f757805182526020820191506020810190506020830392506145d2565b6001836020036101000a03801982511681845116808217855250505050505090500191505060405180910390206001900481151561463157fe5b06600101905092915050565b60606000614649614e50565b60008060008060008060009750610140604051908101604052808981526020018981526020018981526020018981526020018981526020018981526020018981526020018981526020018981526020018981525096508795508794505b600a8510156146fb5787606a86600a811015156146bf57fe5b600302016001015411156146ee57848787600a811015156146dc57fe5b60200201818152505085806001019650505b84806001019550506146a6565b8786141561476757606060405190810160405280602381526020017f416c6c207374726f6e67686f6c647320617265206f636375706965642062792081526020017f4e5043000000000000000000000000000000000000000000000000000000000081525098506149b4565b61476f6112b1565b614778336144a5565b60ff16430101935061478a848761458f565b60ff1692508660018403600a811015156147a057fe5b60200201519250606a83600a811015156147b657fe5b600302016001015491506013600083815260200190815260200160002060000160009054906101000a900473ffffffffffffffffffffffffffffffffffffffff16601460008c815260200190815260200160002060060160006101000a81548173ffffffffffffffffffffffffffffffffffffffff021916908373ffffffffffffffffffffffffffffffffffffffff160217905550608960008b815260200190815260200160002060008082016000905560018201600090555050606a83600a8110151561488057fe5b60030201600080820160009055600182016000905560028201600090555050608b54905043608b8190555060a060405190810160405280608b5481526020016001850181526020018b815260200183815260200182815250608d6000608b54815260200190815260200160002060008201518160000155602082015181600101556040820151816002015560608201518160030155608082015181600401559050506149b161492e84614abb565b6040805190810160405280601081526020017f2067656e657261746564206964202d200000000000000000000000000000000081525061496d89614abb565b6040805190810160405280601381526020017f202d2066726f6d206964732c2064726f703a20000000000000000000000000008152506149ac8f614abb565b614c12565b98505b5050505050505050919050565b600073ffffffffffffffffffffffffffffffffffffffff168173ffffffffffffffffffffffffffffffffffffffff16141515156149fd57600080fd5b8073ffffffffffffffffffffffffffffffffffffffff166000809054906101000a900473ffffffffffffffffffffffffffffffffffffffff1673ffffffffffffffffffffffffffffffffffffffff167f8be0079c531659141344cd1fd0a4f28419497f9722a3daafe3b4186f6b6457e060405160405180910390a3806000806101000a81548173ffffffffffffffffffffffffffffffffffffffff021916908373ffffffffffffffffffffffffffffffffffffffff16021790555050565b60606000806060600080861415614b09576040805190810160405280600181526020017f30000000000000000000000000000000000000000000000000000000000000008152509450614c09565b8593505b600084141515614b33578280600101935050600a84811515614b2b57fe5b049350614b0d565b826040519080825280601f01601f191660200182016040528015614b665781602001602082028038833980820191505090505b5091506001830390505b600086141515614c0557600a86811515614b8657fe5b066030017f010000000000000000000000000000000000000000000000000000000000000002828280600190039350815181101515614bc157fe5b9060200101907effffffffffffffffffffffffffffffffffffffffffffffffffffffffffffff1916908160001a905350600a86811515614bfd57fe5b049550614b70565b8194505b50505050919050565b606085858585856040516020018086805190602001908083835b602083101515614c515780518252602082019150602081019050602083039250614c2c565b6001836020036101000a03801982511681845116808217855250505050505090500185805190602001908083835b602083101515614ca45780518252602082019150602081019050602083039250614c7f565b6001836020036101000a03801982511681845116808217855250505050505090500184805190602001908083835b602083101515614cf75780518252602082019150602081019050602083039250614cd2565b6001836020036101000a03801982511681845116808217855250505050505090500183805190602001908083835b602083101515614d4a5780518252602082019150602081019050602083039250614d25565b6001836020036101000a03801982511681845116808217855250505050505090500182805190602001908083835b602083101515614d9d5780518252602082019150602081019050602083039250614d78565b6001836020036101000a03801982511681845116808217855250505050505090500195505050505050604051602081830303815290604052905095945050505050565b60a060405190810160405280600590602082028038833980820191505090505090565b828054828255906000526020600020908101928215614e3f579160200282015b82811115614e3e578251825591602001919060010190614e23565b5b509050614e4c9190614e74565b5090565b61014060405190810160405280600a90602082028038833980820191505090505090565b614e9691905b80821115614e92576000816000905550600101614e7a565b5090565b905600a165627a7a72305820764982bc206d0ae20e62b9460ef2c45f587c4030a3d47eb6115fe4432f28b5c00029",
  "source": "pragma solidity ^0.4.23;\r\n\r\nimport \"./Ownable.sol\";\r\n\r\ncontract Blocklords is Ownable {\r\n\r\n\r\n/////////////////////////////////////   MISC    ////////////////////////////////////////////////\r\n\r\nuint duration8Hours = 28800;      // 28_800 Seconds are 8 hours\r\nuint duration12Hours = 43200;     // 43_200 Seconds are 12 hours\r\nuint duration24Hours = 86400;     // 86_400 Seconds are 24 hours\r\n\r\nuint createHeroFee = 500000000; //TRX in SUN, 1 TRX * 1000000\r\n                   //___000000\r\nuint fee8Hours =   50000000;\r\n                 //__000000\r\nuint fee12Hours =  88000000;\r\n                 //__000000\r\nuint fee24Hours = 100000000;\r\n                //___000000\r\nuint siegeBattleFee = 200000000;\r\n                       //000000\r\nuint banditBattleFee = 500000000;\r\n                     //__000000\r\nuint strongholdBattleFee = 100000000;\r\n                         //___000000\r\n\r\nuint ATTACKER_WON = 1;\r\nuint ATTACKER_LOSE = 2;\r\nuint DRAW = 3;\r\n\r\nuint PVP= 1;       // Player Against Player at the Strongholds\r\nuint PVC= 2;       // Player Against City\r\nuint PVE= 3;       // Player Against NPC on the map\r\n\r\n\r\n\r\nuint coffersTotal = allCoffers();\r\n\r\nfunction getBalance() public view returns(uint) {\r\n    return address(this).balance;\r\n}\r\n\r\nfunction withdraw(uint amount) public returns(bool) { //  withdraw  only to owner's address\r\n    // if (amount == 0)\r\n    //     amount = getBalance();\r\n    // require(amount < address(this).balance-coffersTotal,\r\n    // \"balance is insufficient\");  // Umcomment this requirement if you want the amount stored in coffers to be not withdrawable\r\n    address owner_ = owner();\r\n    owner_.transfer(amount);\r\n    return true;\r\n}\r\n\r\nfunction random(uint entropy, uint number) private view returns (uint8) {\r\n     // NOTE: This random generator is not entirely safe and   could potentially compromise the game,\r\n        return uint8(1 + uint256(keccak256(abi.encodePacked(block.timestamp, block.difficulty, entropy)))%number);\r\n   }\r\n\r\nfunction randomFromAddress(address entropy) private view returns (uint8) {\r\n       return uint8(1 + uint256(keccak256(abi.encodePacked(block.timestamp, block.difficulty, entropy)))%256);\r\n   }\r\n\r\n////////////////////////////////////////////////////////////////////////////////////////////////////\r\n\r\n///////////////////////////////////// PAYMENT STRUCT ///////////////////////////////////////////////\r\n\r\n    struct Payment{\r\n        address PAYER;\r\n        uint HERO_ID;\r\n    }\r\n\r\n    mapping (uint => Payment) payments;\r\n\r\n    function heroCreationPayment(uint heroId) public payable returns(uint, uint, bool){\r\n        require(msg.value == createHeroFee, \"Payment fee does not match\");\r\n        payments[heroId] = Payment(msg.sender, heroId);\r\n        return(msg.value, createHeroFee, msg.value == createHeroFee);\r\n    }\r\n\r\n    function getPayments(uint heroId) public view returns(address, uint){\r\n        return(payments[heroId].PAYER, payments[heroId].HERO_ID);\r\n    } //TODO: add event\r\n\r\n////////////////////////////////////////////////////////////////////////////////////////////////////\r\n\r\n\r\n///////////////////////////////////// HERO STRUCT ////////////////////////////////////////////////\r\n\r\n    struct Hero{\r\n        address OWNER;     // Wallet address of Player that owns Hero\r\n        uint TROOPS_CAP;   // Troops limit for this hero\r\n        uint LEADERSHIP;   // Leadership Stat value\r\n        uint INTELLIGENCE; // Intelligence Stat value\r\n        uint STRENGTH;     // Strength Stat value\r\n        uint SPEED;        // Speed Stat value\r\n        uint DEFENSE;      // Defense Stat value\r\n        // bytes32 TX;     // Transaction ID where Hero creation was recorded\r\n    }\r\n\r\n    mapping (uint => Hero) heroes;\r\n\r\n    function putHero(uint id, uint troopsCap, uint leadership,  uint intelligence, uint strength, uint speed, uint defense, uint item1, uint item2, uint item3, uint item4, uint item5) public payable returns(bool){\r\n            require(msg.value == createHeroFee, \"Payment fee does not match\");\r\n            require(id > 0,\r\n            \"Please insert id higher than 0\");\r\n            //require(payments[id].PAYER == owner, \"Payer and owner do not match\");\r\n            require(heroes[id].OWNER == 0x0000000000000000000000000000000000000000,\r\n            \"Hero with this id already exists\");\r\n\r\n            // TODO check item is not for stronghold reward\r\n             require(items[item1].OWNER != 0x0000000000000000000000000000000000000000, \"Item is not exist\");\r\n             require(items[item2].OWNER != 0x0000000000000000000000000000000000000000, \"Item is not exist\");\r\n             require(items[item3].OWNER != 0x0000000000000000000000000000000000000000, \"Item is not exist\");\r\n             require(items[item4].OWNER != 0x0000000000000000000000000000000000000000, \"Item is not exist\");\r\n             require(items[item5].OWNER != 0x0000000000000000000000000000000000000000, \"Item is not exist\");\r\n\r\n            //delete payments[id]; // delete payment hash after the hero was created in order to prevent double spend\r\n            heroes[id] = Hero(msg.sender, troopsCap, leadership,  intelligence, strength, speed, defense);\r\n\r\n            items[item1].OWNER = msg.sender;\r\n            items[item2].OWNER = msg.sender;\r\n            items[item3].OWNER = msg.sender;\r\n            items[item4].OWNER = msg.sender;\r\n            items[item5].OWNER = msg.sender;\r\n\r\n\r\n            return true;\r\n    }\r\n\r\n    function getHero(uint id) public view returns(address, uint, uint, uint, uint, uint, uint){\r\n            return (heroes[id].OWNER, heroes[id].TROOPS_CAP, heroes[id].LEADERSHIP, heroes[id].INTELLIGENCE, heroes[id].STRENGTH, heroes[id].SPEED, heroes[id].DEFENSE);\r\n        }\r\n\r\n////////////////////////////////////////////////////////////////////////////////////////////////////\r\n\r\n///////////////////////////////////// ITEM STRUCT //////////////////////////////////////////////////\r\n\r\n    struct Item{\r\n\r\n        uint STAT_TYPE; // Item can increase only one stat of Hero, there are five: Leadership, Defense, Speed, Strength and Intelligence\r\n        uint QUALITY; // Item can be in different Quality. Used in Gameplay.\r\n\r\n        uint GENERATION; // Items are given to Players only as a reward for holding Strongholds on map, or when players create a hero.\r\n                         // Items are given from a list of items batches. Item batches are putted on Blockchain at once by Game Owner.\r\n                         // Each of Item batches is called as a generation.\r\n\r\n        uint STAT_VALUE;\r\n        uint LEVEL;\r\n        uint XP;         // Each battle where, Item was used by Hero, increases Experience (XP). Experiences increases Level. Level increases Stat value of Item\r\n        address OWNER;   // Wallet address of Item owner.\r\n    }\r\n\r\n    mapping (uint => Item) public items;\r\n\r\n    // battle id > item id\r\n    mapping (uint => uint) public updated_items;\r\n\r\n    // creationType StrongholdReward: 0, createHero 1\r\n    function putItem(uint creationType, uint id, uint statType, uint quality, uint generation, uint statValue, uint level, uint xp, address itemOwner ) public onlyOwner { // only contract owner can put new items\r\n            require(id > 0,\r\n            \"Please insert id higher than 0\");\r\n\r\n            if (itemOwner == 0x0000000000000000000000000000000000000000) {\r\n              itemOwner = msg.sender;\r\n            }\r\n\r\n            items[id] = Item(statType, quality, generation, statValue, level, xp, itemOwner);\r\n\r\n            if (creationType == 0){\r\n                addStrongholdReward(id);     //if putItem(stronghold reward) ==> add to StrongholdReward\r\n            }\r\n        }\r\n\r\n    function getItem(uint id) public view returns(uint, uint, uint, uint, uint, uint, address){\r\n            return (items[id].STAT_TYPE, items[id].QUALITY, items[id].GENERATION, items[id].STAT_VALUE, items[id].LEVEL, items[id].XP, items[id].OWNER);\r\n        }\r\n\r\n    function getUpdatedItem(uint battleId) public view returns(uint) {\r\n      return updated_items[battleId];\r\n    }\r\n\r\n    function isUpgradableItem(uint id) private view returns (bool){\r\n      if (items[id].STAT_VALUE == 0) return false;\r\n\r\n      if (items[id].QUALITY == 1 && items[id].LEVEL == 3) return false;\r\n      if (items[id].QUALITY == 2 && items[id].LEVEL == 5) return false;\r\n      if (items[id].QUALITY == 3 && items[id].LEVEL == 7) return false;\r\n      if (items[id].QUALITY == 4 && items[id].LEVEL == 9) return false;\r\n      if (items[id].QUALITY == 5 && items[id].LEVEL == 10) return false;\r\n\r\n      return true;\r\n    }\r\n\r\n    function updateItemsStats(uint[] itemIds, uint battleId) public {\r\n      uint zero = 0;\r\n      uint[5] memory existedItems = [zero, zero, zero, zero, zero];\r\n      uint itemIndexesAmount = zero;\r\n\r\n      for (uint i=zero; i<itemIds.length; i++) {\r\n        if (itemIds[i] != zero) {\r\n\r\n          // Check if Exp can be increased\r\n          if (isUpgradableItem(itemIds[i])) {\r\n\r\n            existedItems[itemIndexesAmount] = itemIds[i];\r\n            itemIndexesAmount++;\r\n          }\r\n        }\r\n      }\r\n\r\n      //uint seed = block.number + item.GENERATION+item.LEVEL+item.STAT_VALUE+item.XP + itemIds.length + randomFromAddress(item.OWNER); // my poor attempt to make the random generation a little bit more random\r\n\r\n        if (itemIndexesAmount == zero) {\r\n          return;\r\n        }\r\n        uint seed = block.number + randomFromAddress(msg.sender) + getBalance();\r\n\r\n        uint randomIndex = random(seed, itemIndexesAmount);\r\n        randomIndex--; // It always starts from 1. While arrays from 0\r\n\r\n            uint id = existedItems[randomIndex];\r\n\r\n            // Increase XP that represents on how many battles the Item was involved into\r\n            items[id].XP = items[id].XP + 2;\r\n\r\n            // Increase Level\r\n            if (\r\n                items[id].LEVEL == 0 && items[id].XP == 2 ||\r\n                items[id].LEVEL == 1 && items[id].XP == 6 ||\r\n                items[id].LEVEL == 2 && items[id].XP == 20 ||\r\n                items[id].LEVEL == 3 && items[id].XP == 48 ||\r\n                items[id].LEVEL == 4 && items[id].XP == 92 ||\r\n                items[id].LEVEL == 5 && items[id].XP == 152 ||\r\n                items[id].LEVEL == 6 && items[id].XP == 228 ||\r\n                items[id].LEVEL == 7 && items[id].XP == 318 ||\r\n                items[id].LEVEL == 8 && items[id].XP == 434 ||\r\n                items[id].LEVEL == 9 && items[id].XP == 580\r\n                ) {\r\n\r\n                    items[id].LEVEL = items[id].LEVEL + 1;\r\n                    items[id].STAT_VALUE = items[id].STAT_VALUE + 1;\r\n                    // return \"Item level is increased by 1\";\r\n            }\r\n            // Increase Stats based on Quality\r\n            /* if (item.QUALITY == 1){\r\n                item.STAT_VALUE = item.STAT_VALUE + random(seed, 3);\r\n            } else if (item.QUALITY == 2){\r\n                item.STAT_VALUE = item.STAT_VALUE + random(seed, 3) + 3;\r\n            } else if (item.QUALITY == 2){\r\n                item.STAT_VALUE = item.STAT_VALUE + random(seed, 3) + 6;\r\n            } else if (item.QUALITY == 2){\r\n                item.STAT_VALUE = item.STAT_VALUE + random(seed, 3) + 9;\r\n            } else if (item.QUALITY == 2){\r\n                item.STAT_VALUE = item.STAT_VALUE + random(seed, 3) + 12;\r\n            } */\r\n            /* items[id] = item; */\r\n\r\n            updated_items[battleId] = id;\r\n    }\r\n\r\n////////////////////////////////////////////////////////////////////////////////////////////////////////\r\n\r\n///////////////////////////////////// MARKET ITEM STRUCT ///////////////////////////////////////////////\r\n\r\n    struct MarketItemData{\r\n\r\n            uint Price; // Fixed Price of Item defined by Item owner\r\n            uint AuctionDuration; // 8, 12, 24 hours\r\n            uint AuctionStartedTime; // Unix timestamp in seconds\r\n            uint City; // City ID (item can be added onto the market only through cities.)\r\n            address Seller; // Wallet Address of Item owner\r\n            // bytes32 TX; // Transaction ID, (Transaction that has a record of Item Adding on Market)\r\n\r\n    }\r\n\r\n    mapping (uint => MarketItemData) market_items_data;\r\n\r\n    function addMarketItem(uint itemId, uint price, uint auctionDuration, uint city) public payable { // START AUCTION FUNCTION\r\n            require(items[itemId].OWNER == msg.sender, \"You don't own this item\");\r\n            require(auctionDuration == duration8Hours || auctionDuration == duration12Hours || auctionDuration == duration24Hours,\r\n            \"Incorrect auction duration\");\r\n            if (auctionDuration == duration8Hours){\r\n                require(msg.value == fee8Hours,\r\n                \"Incorrect fee amount\");\r\n            } else if (auctionDuration == duration12Hours){\r\n                require(msg.value == fee12Hours,\r\n                \"Incorrect fee amount\");\r\n            } else if (auctionDuration == duration24Hours){\r\n                require(msg.value == fee24Hours,\r\n                \"Incorrect fee amount\");\r\n            }\r\n            address seller = msg.sender;\r\n            uint auctionStartedTime = now;\r\n            market_items_data[itemId] = MarketItemData(price, auctionDuration, auctionStartedTime, city - 1, seller);\r\n        }\r\n//\r\n    function getMarketItem(uint itemId) public view returns(uint, uint, uint, uint, address){\r\n            return(market_items_data[itemId].Price, market_items_data[itemId].AuctionDuration, market_items_data[itemId].AuctionStartedTime, market_items_data[itemId].City, market_items_data[itemId].Seller);\r\n    }\r\n\r\n    function buyMarketItem(uint itemId) public payable returns(bool) {\r\n        require(market_items_data[itemId].AuctionStartedTime+market_items_data[itemId].AuctionDuration>=now,\r\n        \"Auction is no longer available\"); // check  auction duration time\r\n        require(msg.value == (market_items_data[itemId].Price / 100 * 110),\r\n        \"The value sent is incorrect\"); // check transaction amount\r\n\r\n        uint city = market_items_data[itemId].City; // get the city id\r\n\r\n        uint cityHero = cities[city].Hero;  // get the hero id\r\n        address cityOwner = heroes[cityHero].OWNER; // get the hero owner\r\n        address seller = market_items_data[itemId].Seller;\r\n\r\n        uint amount = msg.value;\r\n\r\n        if (cityOwner > 0)\r\n          cityOwner.transfer(amount / 110 * 5); // send 5% to city owner\r\n        seller.transfer(amount / 110 * 100); // send 90% to seller\r\n\r\n        items[itemId].OWNER = msg.sender; // change owner\r\n        delete market_items_data[itemId]; // delete auction\r\n        return (true);\r\n\r\n    }\r\n//auctionCancel\r\n    function deleteMarketItem(uint itemId) public returns(bool){\r\n        require(market_items_data[itemId].Seller == msg.sender,\r\n                \"You do not own this item\");\r\n        delete market_items_data[itemId];\r\n        return true;\r\n    }\r\n\r\n\r\n//////////////////////////////////////////////////////////////////////////////////////////////////////////////////\r\n\r\n///////////////////////////////////// CITY STRUCT //////////////////////////////////////////////////////////\r\n\r\n    struct City{\r\n\r\n        uint ID; // city ID\r\n        uint Hero;  // id of the hero owner\r\n        uint Size; // BIG, MEDIUM, SMALL\r\n        uint CofferSize; // size of the city coffer\r\n        uint CreatedBlock;\r\n    }\r\n\r\n    City[16] public cities;\r\n\r\n    mapping(uint => City[16]) public idToCity;\r\n\r\n    function putCity(uint id, uint size, uint cofferSize) public payable onlyOwner {\r\n        require(msg.value == cofferSize,\r\n                \"msg.value does not match cofferSize\");\r\n        uint blankHero = 0;\r\n        cities[id-1] = City(id, blankHero, size, cofferSize, 0);\r\n    }\r\n\r\n    function getCityData(uint id) public view returns(uint, uint, uint){\r\n        return (cities[id-1].Hero, cities[id-1].Size, cities[id-1].CofferSize);\r\n\r\n    }\r\n\r\n    function allCoffers() public view returns(uint){\r\n        uint total = 0;\r\n        for (uint i=0; i < cities.length ; i++){\r\n            total += cities[i].CofferSize;\r\n        }\r\n        return total;\r\n    }\r\n\r\n    uint cofferBlockNumber = block.number;\r\n    uint CofferBlockDistance = 1;//150000;\r\n\r\n    function dropCoffer() public {   // drop coffer (every 25 000 blocks) ==> 30% coffer goes to cityOwner\r\n        require(block.number-cofferBlockNumber > CofferBlockDistance,\r\n        \"Please try again later\");\r\n\r\n        cofferBlockNumber = block.number; // this function can be called every \"cofferBlockNumber\" blocks\r\n\r\n        for (uint cityNumber=0; cityNumber < cities.length ; cityNumber++){ // loop through each city\r\n\r\n            uint cityHero = cities[cityNumber].Hero;\r\n            address heroOwner = heroes[cityHero].OWNER;\r\n            uint transferValue = (cities[cityNumber].CofferSize/100)*30;\r\n            cities[cityNumber].CofferSize = (cities[cityNumber].CofferSize/100)*70;\r\n\r\n            if (cityHero > 0){\r\n                heroOwner.transfer(transferValue);\r\n            } // else it is goes to nowhere, which means will stay on contract and will be transferred NPC owner.\r\n        }\r\n    }\r\n\r\n    function getDropCofferBlock() public view returns(uint) {\r\n      return (cofferBlockNumber);\r\n    }\r\n\r\n//////////////////////////////////////////////////////////////////////////////////////////////////////////////////\r\n\r\n///////////////////////////////////// STRONGHOLD STRUCT //////////////////////////////////////////////////////////\r\n\r\n    struct Stronghold{\r\n        uint ID;           // Stronghold ID\r\n        uint Hero;         // Hero ID, that occupies Stronghold on map\r\n        uint CreatedBlock; // The Blockchain Height\r\n\r\n    }\r\n\r\n    Stronghold[10] public strongholds;\r\n\r\n    mapping(uint => Stronghold[10]) public idToStronghold;\r\n\r\n    function changeStrongholdOwner(uint id, uint hero) public {\r\n            require(heroes[hero].OWNER != 0x0000000000000000000000000000000000000000,\r\n            \"There is no such hero\");\r\n            require(heroes[hero].OWNER == msg.sender,\r\n            \"You dont own this hero\");\r\n\r\n            strongholds[id] = Stronghold(id, hero, block.number); // Stronghold ID is the only id that starts from 0, all other id's start from 1\r\n    }\r\n\r\n    function getStrongholdData(uint shId) public view returns(uint, uint){\r\n            return(strongholds[shId-1].Hero, strongholds[shId-1].CreatedBlock);\r\n    }\r\n\r\n    function putStronghold(uint shId, uint hId) public returns (uint) {\r\n        require(strongholds[shId-1].CreatedBlock == 0, \"Stronghold can not be overwritten\");\r\n\r\n        strongholds[shId-1] = Stronghold(shId, hId, block.number);\r\n        return block.number;\r\n    }\r\n\r\n    function leaveStronghold(uint shId, uint heroId) public returns(bool){\r\n            require(strongholds[shId-1].Hero == heroId,\r\n            \"Selected hero is not in the stronghold\");\r\n             require(heroes[heroId].OWNER == msg.sender,\r\n            \"You do not own this hero\");\r\n            strongholds[shId-1].Hero = 0;\r\n            //strongholds[shId-1].CreatedBlock = block.number;\r\n            return true;\r\n    }\r\n\r\n//////////////////////////////////////////////////////////////////////////////////////////////////////////////////\r\n\r\n/////////////////////////////////////// STRONGLOHD REWARD STRUCT /////////////////////////////////////////////////////////\r\n\r\n    struct StrongholdReward{\r\n\r\n        uint ID;           // Item ID\r\n        uint CreatedBlock; // The Blockchain Height\r\n    }\r\n\r\n    mapping (uint => StrongholdReward) public stronghold_rewards;\r\n\r\n    function addStrongholdReward(uint id) public onlyOwner returns(bool){\r\n        stronghold_rewards[id] = StrongholdReward(id, block.number);\r\n    }\r\n\r\n//////////////////////////////////////////////////////////////////////////////////////////////////////////////////\r\n\r\n/////////////////////////////////////// BATTLELOG STRUCT /////////////////////////////////////////////////////////\r\n\r\n    struct BattleLog{\r\n\r\n        uint[] BattleResultType; // BattleResultType[0]: 0 - Attacker WON, 1 - Attacker Lose ; BattleResultType[1]: 0 - City, 1 - Stronghold, 2 - Bandit Camp\r\n        uint Attacker;\r\n        uint[] AttackerTroops;       // Attacker's troops amount that were involved in the battle & remained troops\r\n        uint[] AttackerItems;        // Item IDs that were equipped by Attacker during battle.\r\n        uint DefenderObject;   // City|Stronghold|NPC ID based on battle type\r\n        uint Defender;         // City Owner ID|Stronghold Owner ID or NPC ID\r\n        uint[] DefenderTroops;\r\n        uint[] DefenderItems;\r\n        uint Time;             // Unix Timestamp in seconds. Time, when battle happened\r\n        // bytes32 TX;                   // Transaction where Battle Log was recorded.\r\n        }\r\n\r\n    mapping(uint => BattleLog) public battle_logs;\r\n\r\n    // result type: win or lose/ battle type\r\n    // last parameter 'dropItem' is only for contest version of game\r\n    function addBattleLog(uint id, uint[] resultType, uint attacker, uint[] attackerTroops, uint[] attackerItems,\r\n                          uint defenderObject, uint defender, uint[] defenderTroops, uint[] defenderItems )//, uint itemDrop*/)\r\n\r\n                          public payable returns (bool){\r\n\r\n            require(resultType.length <=2 && resultType[0] <= 2 && resultType[1] <= 3 ,\r\n                    \"Incorrect number of result parametres or incorrect parametres\");\r\n            require(attackerTroops.length == 2,\r\n                    \"Incorrect number of arguments for attackerTroops\");\r\n            require(attackerItems.length <= 5,\r\n                    \"incorrect number of attacker items\");\r\n            require(defenderTroops.length == 2,\r\n                    \"Incorrect number of arguments for defenderTroops\");\r\n            require(defenderItems.length <=5,\r\n                    \"incorrect number of defender items\");\r\n\r\n            if (resultType[1] == PVC){ // siegeBattleFee if atack City\r\n                require(msg.value == siegeBattleFee,\r\n                \"Incorrect fee amount\");\r\n            } else if (resultType[1] == PVP){ // strongholdBattleFee if atack Stronghold\r\n                require(msg.value == strongholdBattleFee,\r\n                \"Incorrect fee amount\");\r\n            } else if (resultType[1] == PVE){ // banditBattleFee if atack Bandit Camp\r\n                require(msg.value == banditBattleFee,\r\n                \"Incorrect fee amount\");\r\n            }\r\n\r\n            uint time = now;\r\n\r\n            battle_logs[id] = BattleLog(resultType, attacker, attackerTroops,\r\n                                        attackerItems, defenderObject, defender,\r\n                                        defenderTroops, defenderItems, time); //add data to the struct\r\n\r\n            //            if (resultType[0] == ATTACKER_WON) {\r\n            //                items[dropItem].OWNER = msg.sender;\r\n            //            }\r\n\r\n            if (resultType[0] == ATTACKER_WON && resultType[1] == PVP){\r\n                strongholds[defenderObject-1].Hero = attacker; // if attack Stronghold && WIN ==> change stronghold Owner\r\n                strongholds[defenderObject-1].CreatedBlock = block.number;\r\n            } else if (resultType[1] == PVC) {\r\n              cities[defenderObject-1].CofferSize = cities[defenderObject-1].CofferSize + (siegeBattleFee / 2);\r\n              if (resultType[0] == ATTACKER_WON) {\r\n                cities[defenderObject-1].Hero = attacker; // else if attack City && WIN ==> change city owner\r\n                cities[defenderObject-1].CreatedBlock = block.number;\r\n              }\r\n            } else if (resultType[1] == PVE){\r\n                updateItemsStats(attackerItems, id);     // else if attackBandit ==> update item stats\r\n            }\r\n            return true;\r\n    }\r\n\r\n\r\n////////////////////////////////////////// DROP DATA STRUCT ///////////////////////////////////////////////////\r\n\r\n    struct DropData{       // Information of Item that player can get as a reward.\r\n        uint Block;        // Blockchain Height, in which player got Item as a reward\r\n        uint StrongholdId; // Stronghold on the map, for which player got Item\r\n        uint ItemId;       // Item id that was given as a reward\r\n        uint HeroId;\r\n        uint PreviousBlock;\r\n    }\r\n\r\n    uint blockNumber = block.number;\r\n    uint blockDistance = 1; // 800 in original\r\n\r\n    mapping(uint => DropData) public stronghold_reward_logs;\r\n\r\n    function getDropItemBlock() public view returns(uint) {\r\n      return (blockNumber);\r\n    }\r\n\r\n    /*\r\n    Stronghold Timer\r\n\r\n    StrongholdTimer global variable\r\n\r\n    When Putting Stronghold:\r\n    Check if global variable is 0\r\n\r\n    */\r\n\r\n    /* function minimize(uint number) internal pure returns (uint) {\r\n      if (number >= 100000000)\r\n    return number / 100000000;\r\n      if (number >= 10000000)\r\n    return number / 10000000;\r\n      if (number >= 1000000)\r\n    return number / 1000000;\r\n      if (number >= 100000)\r\n    return number / 100000;\r\n      if (number >= 10000)\r\n    return number / 10000;\r\n      if (number >= 1000)\r\n    return number / 1000;\r\n      if (number >= 100)\r\n    return number / 100;\r\n      if (number >= 10)\r\n    return number / 10;\r\n      return  number;\r\n    } */\r\n\r\n    /* function complexDropItems(uint itemId) internal returns(string) {\r\n      uint total = 0;\r\n      uint[10] memory ranges = [ total, total, total, total, total, total, total, total, total, total ];\r\n\r\n      if (strongholds[0].Hero > 0) {\r\n        // 200 - 100 => 100\r\n          total = minimize(block.number - strongholds[0].CreatedBlock);\r\n      }\r\n      ranges[0] = total;   // 100\r\n\r\n\r\n\r\n      if (strongholds[1].Hero > 0) { // 0, skipping\r\n          total = minimize(total + (block.number - strongholds[1].CreatedBlock));\r\n      }\r\n      ranges[1] = total;   // 100\r\n\r\n\r\n\r\n      if (strongholds[2].Hero > 0) {\r\n        // 200 - 50 + 100 => 150\r\n          total = minimize(total + (block.number - strongholds[2].CreatedBlock));\r\n      }\r\n      ranges[2] = total;\r\n\r\n\r\n      if (strongholds[3].Hero > 0) {\r\n        // 200 - 150 + 150 => 200\r\n          total = minimize(total + (block.number - strongholds[3].CreatedBlock));\r\n      }\r\n      ranges[3] = total;\r\n\r\n\r\n      if (strongholds[4].Hero > 0) {\r\n        // 0\r\n          total =minimize(total + (block.number - strongholds[4].CreatedBlock));\r\n      }\r\n      ranges[4] = total;\r\n\r\n      if (strongholds[5].Hero > 0) {\r\n        // 0\r\n          total = minimize(total + (block.number - strongholds[5].CreatedBlock));\r\n      }\r\n      ranges[5] = total;\r\n\r\n\r\n      if (strongholds[6].Hero > 0) {\r\n        // 200 - 25 + 200 => 375\r\n          total = minimize(total + (block.number - strongholds[6].CreatedBlock));\r\n      }\r\n      ranges[6] = total;\r\n\r\n\r\n      if (strongholds[7].Hero > 0) {\r\n        // 200 - 75 + 375 => 500\r\n          total = minimize(total + (block.number - strongholds[7].CreatedBlock));\r\n      }\r\n      ranges[7] = total;\r\n\r\n\r\n      if (strongholds[8].Hero > 0) {\r\n        // 0\r\n          total = minimize(total + (block.number - strongholds[8].CreatedBlock));\r\n      }\r\n      ranges[8] = total;\r\n      if (strongholds[9].Hero > 0) {\r\n        // 0\r\n           total = minimize(total + (block.number - strongholds[9].CreatedBlock));\r\n      }\r\n      ranges[9] = total;\r\n\r\n      if (total < 1)\r\n      {\r\n        return(\"All Strongholds have an NPC\");\r\n      }\r\n\r\n// 1 - 100, 2 - 0, 3 - 150, 4 - 200, 5 - 0, 6 - 0, 7 - 375, 8 - 500, 9 - 0, 10 - 0\r\n      uint seed = randomFromAddress(msg.sender);// + block.number;\r\n\r\n      // 333 - 1 => 332\r\n      uint dot = random(seed, total); // select randomly stronghold\r\n\r\n      uint strongholdId = 0;\r\n\r\n      // skipping\r\n      if (strongholds[9].Hero > 0) {\r\n          if (dot > ranges[8] && dot <= ranges[9]) {\r\n              strongholdId = 10;\r\n          }\r\n      }\r\n      // skipping\r\n      if (strongholds[8].Hero > 0) {\r\n          if (dot > ranges[7] && dot <= ranges[8]) {\r\n            strongholdId = 9;\r\n          }\r\n      }\r\n      // 332 < 500 => true, strongHold = 8\r\n      if (strongholds[7].Hero > 0) {\r\n          if (dot > ranges[6] && dot <= ranges[7]) {\r\n            strongholdId = 8;\r\n          }\r\n      }\r\n      // 332 < 375 => true, stronghold = 7\r\n      if (strongholds[6].Hero > 0) {\r\n          if (dot > ranges[5] && dot <= ranges[6]) {\r\n            strongholdId = 7;\r\n          }\r\n      }\r\n      if (strongholds[5].Hero > 0) {\r\n          if (dot > ranges[4] && dot <= ranges[5]) {\r\n            strongholdId = 6;\r\n          }\r\n      }\r\n      if (strongholds[4].Hero > 0) {\r\n          if (dot > ranges[3] && dot <= ranges[4]) {\r\n            strongholdId = 5;\r\n          }\r\n      }\r\n      if (strongholds[3].Hero > 0) {\r\n          if (dot > ranges[2] && dot <= ranges[3]) {\r\n            strongholdId = 4;\r\n          }\r\n      }\r\n      if (strongholds[2].Hero > 0) {\r\n          if (dot > ranges[1] && dot <= ranges[2]) {\r\n            strongholdId = 3;\r\n          }\r\n      }\r\n      if (strongholds[1].Hero > 0) {\r\n          if (dot > ranges[0] && dot <= ranges[1]) {\r\n            strongholdId = 2;\r\n          }\r\n      }\r\n      if (strongholds[0].Hero > 0) {\r\n          if (dot > 0 && dot <= ranges[0]) {\r\n            strongholdId = 1;\r\n          }\r\n      }\r\n\r\n      if (strongholdId != 0) {\r\n        uint lordId = strongholds[strongholdId-1].Hero;\r\n\r\n        items[itemId].OWNER = heroes[lordId].OWNER;\r\n\r\n        delete stronghold_rewards[itemId]; //delete item from strongHold reward struct\r\n        delete strongholds[strongholdId-1];\r\n\r\n        // Update Block\r\n        uint previousBlock = blockNumber;\r\n        blockNumber = block.number; // this function can be called every \"blockDistance\" blocks\r\n\r\n        stronghold_reward_logs[blockNumber] = DropData(blockNumber, strongholdId, itemId, lordId, previousBlock); //add data to the struct\r\n\r\n        // return (\"Supreme success\");\r\n        return(strConcat(uint2str(dot), \" \",uint2str(total), uint2str(strongholdId), uint2str(itemId))); // check if hero exist\r\n          //return rewardStrongholdLord(itemId, strongholdId);\r\n      }\r\n\r\n      return (\"Failed to reward stronghold lord\");\r\n    } */\r\n\r\n    function simpleDropItems(uint itemId) internal returns (string) {\r\n      uint zero = 0;\r\n      uint[10] memory occupied = [zero, zero, zero, zero, zero, zero, zero, zero, zero, zero];\r\n      uint occupiedIndexesAmount = zero;\r\n\r\n      for (uint i=zero; i<10; i++) {\r\n        if (strongholds[i].Hero > zero) {\r\n          occupied[occupiedIndexesAmount] = i;\r\n          occupiedIndexesAmount++;\r\n        }\r\n      }\r\n\r\n      //uint seed = block.number + item.GENERATION+item.LEVEL+item.STAT_VALUE+item.XP + itemIds.length + randomFromAddress(item.OWNER); // my poor attempt to make the random generation a little bit more random\r\n\r\n      if (occupiedIndexesAmount == zero) {\r\n          return \"All strongholds are occupied by NPC\";\r\n      }\r\n      uint seed = block.number + randomFromAddress(msg.sender) + getBalance();\r\n\r\n      uint index = random(seed, occupiedIndexesAmount);\r\n      index = occupied[index - 1];\r\n\r\n      uint lordId = strongholds[index].Hero;\r\n\r\n      items[itemId].OWNER = heroes[lordId].OWNER;\r\n\r\n      delete stronghold_rewards[itemId]; //delete item from strongHold reward struct\r\n      delete strongholds[index];\r\n\r\n      // Update Block\r\n      uint previousBlock = blockNumber;\r\n      blockNumber = block.number; // this function can be called every \"blockDistance\" blocks\r\n\r\n      stronghold_reward_logs[blockNumber] = DropData(blockNumber, index + 1, itemId, lordId, previousBlock); //add data to the struct\r\n\r\n      // return (\"Supreme success\");\r\n      return(strConcat(uint2str(index), \" generated id - \",uint2str(occupiedIndexesAmount), \" - from ids, drop: \", uint2str(itemId))); // check if hero exist\r\n    }\r\n\r\n    function dropItems(uint itemId) public onlyOwner returns(string) {\r\n        require(stronghold_rewards[itemId].ID > 0,\r\n        \"Not a reward item\");\r\n        require(block.number-blockNumber > blockDistance,\r\n        \"Please try again later\");\r\n        return simpleDropItems(itemId);\r\n    }\r\n\r\n    /* function rewardStrongholdLord(uint itemId, uint strongholdId) internal returns(string) {\r\n\r\n        uint lordId = strongholds[strongholdId-1].Hero;\r\n\r\n        items[itemId].OWNER = heroes[lordId].OWNER;\r\n\r\n        delete stronghold_rewards[itemId]; //delete item from strongHold reward struct\r\n        delete strongholds[strongholdId-1];\r\n\r\n        // Update Block\r\n        uint previousBlock = blockNumber;\r\n        blockNumber = block.number; // this function can be called every \"blockDistance\" blocks\r\n\r\n        stronghold_reward_logs[blockNumber] = DropData(blockNumber, strongholdId, itemId, lordId, previousBlock); //add data to the struct\r\n\r\n        // return (\"Supreme success\");\r\n        return(uint2str(strongholdId)); // check if hero exist\r\n    } */\r\n\r\n    // Pass 0 as an Argument to retreive block for latest one\r\n    // TODO return Stronghold id that started from 1.\r\n    function getDropData(uint blockAsKey) public view returns(uint, uint, uint, uint) {\r\n        if (blockAsKey == 0)\r\n            blockAsKey = blockNumber;\r\n        return ( stronghold_reward_logs[blockAsKey].StrongholdId, stronghold_reward_logs[blockAsKey].ItemId,\r\n            stronghold_reward_logs[blockAsKey].HeroId, stronghold_reward_logs[blockAsKey].PreviousBlock  );\r\n    }\r\n\r\n    function uint2str(uint i) internal pure returns (string){\r\n        if (i == 0) return \"0\";\r\n        uint j = i;\r\n        uint length;\r\n        while (j != 0){\r\n            length++;\r\n            j /= 10;\r\n        }\r\n        bytes memory bstr = new bytes(length);\r\n        uint k = length - 1;\r\n        while (i != 0){\r\n            bstr[k--] = byte(48 + i % 10);\r\n            i /= 10;\r\n        }\r\n        return string(bstr);\r\n    }\r\n\r\n    function strConcat(string a, string b, string c, string d, string e) internal pure returns (string) {\r\n\r\n      return string(abi.encodePacked(a, b, c, d, e));\r\n\r\n  }\r\n\r\n//////////////////////////////////////////////////////////////////////////////////////////////////////////////////\r\n\r\n}\r\n",
  "sourcePath": "C:\\repos\\codexpert-tron-dapp-template\\contracts\\Blocklords.sol",
  "compiler": {
    "name": "solc",
    "version": "0.4.24-develop.2018.8.28+commit.3ba0cdec.mod.Emscripten.clang"
  },
  "schemaVersion": "2.0.1",
  "updatedAt": "2019-03-27T09:10:01.710Z"
}